:100000000C942A000C9447000C9447000C94470071
:100010000C9447000C9447000C9447000C94470044
:100020000C9447000C9447000C9447000C94470034
:100030000C9447000C9447000C9447000C94470024
:100040000C9447000C9447000C9447000C94470014
:100050000C94470011241FBECFE5D8E0DEBFCDBF12
:1000600010E0A0E6B0E0ECE8F3E002C005900D92ED
:10007000AC36B107D9F720E0ACE6B0E001C01D9284
:10008000AE36B207E1F70E94CB000C94C4010C9489
:100090000000CF93DF93CDB7DEB72A970FB6F89461
:1000A000DEBF0FBECDBF9AE0E1E6F0E0DE011196C3
:1000B00001900D929A95E1F790E495BB6AE00E9459
:1000C000B801E1E0F0E0EC0FFD1FE90FF11D9081B8
:1000D000990F9BBBEFE1FEE43197F1F700C0000000
:1000E00090E895BBE1E0F0E0EC0FFD1FE80FF11D9B
:1000F0008081880F8BBB8FE19EE40197F1F700C0F0
:1001000000002A960FB6F894DEBF0FBECDBFDF9178
:10011000CF910895CF93DF93CDB7DEB72A970FB66F
:10012000F894DEBF0FBECDBF9AE0E1E6F0E0DE015D
:10013000119601900D929A95E1F790E895BB6AE0CF
:100140000E94B801E1E0F0E0EC0FFD1FE80FF11DA7
:100150008081880F8BBBEFECF7E03197F1F700C09F
:10016000000080E485BBE1E0F0E0EC0FFD1FE90F4B
:10017000F11D8081880F8BBB8FEC97E00197F1F721
:1001800000C000002A960FB6F894DEBF0FBECDBFA8
:10019000DF91CF91089514BA8FEF8ABB11BA809185
:1001A0006000833010F01092600080916000811137
:1001B00073C080916D0080936C0080916C0087FD0E
:1001C0004EC0C3E3829912C080916D0080936C0091
:1001D0008FE19EE40197F1F700C00000829BFECF03
:1001E0008FE19EE40197F1F700C00000839B03C0FC
:1001F000849912C017C08FE19EE40197F1F700C007
:100200000000839BFECF80916C000E94490083997F
:10021000FACF839BFECFECCF80916C000E94490007
:10022000C15081F684990EC0849BFECF8FE19EE47D
:100230000197F1F700C00000809160008F5F80930C
:1002400060000DC080916C008150B5CF80E00E94AD
:10025000490080916C0087FD07C0849B10C080918D
:100260006C0087FDF3CF18C08299F7CF849BFECF37
:100270008FE19EE40197F1F700C000000DC0849B60
:10028000FECF8FE19EE40197F1F700C0000080915E
:1002900060008F5F8093600080916000813099F5ED
:1002A000829916C09FEF23EF81E09150204080405B
:1002B000E1F700C00000829BFECF8FE19EE4019732
:1002C000F1F700C0000080916D00865F80936D00A3
:1002D00080916D00843610F010926D0084990EC0EC
:1002E000849BFECF8FE19EE40197F1F700C00000F0
:1002F000809160008F5F8093600005C080916D00E9
:100300000E948A00CDCF80916000823009F047CFF3
:10031000839913C08FE19EE40197F1F700C00000BC
:10032000839BFECF8FE19EE40197F1F700C00000B0
:1003300080916D008F5F80936D0080916D00843699
:1003400010F010926D0084990EC0849BFECF8FE157
:100350009EE40197F1F700C00000809160008F5F7C
:10036000809360001CCF80916D000E944900D0CF27
:10037000991B79E004C0991F961708F0961B881FF7
:0C0380007A95C9F780950895F894FFCF96
:0C038C00013F065B4F666D7D077F670038
:00000001FF
